{
  "_format": "hh-sol-artifact-1",
  "contractName": "PostStorage",
  "sourceName": "contracts/PostStorage.sol",
  "abi": [
    {
      "inputs": [],
      "stateMutability": "nonpayable",
      "type": "constructor"
    },
    {
      "inputs": [
        {
          "internalType": "address",
          "name": "owner",
          "type": "address"
        }
      ],
      "name": "OwnableInvalidOwner",
      "type": "error"
    },
    {
      "inputs": [
        {
          "internalType": "address",
          "name": "account",
          "type": "address"
        }
      ],
      "name": "OwnableUnauthorizedAccount",
      "type": "error"
    },
    {
      "anonymous": false,
      "inputs": [
        {
          "indexed": true,
          "internalType": "address",
          "name": "previousOwner",
          "type": "address"
        },
        {
          "indexed": true,
          "internalType": "address",
          "name": "newOwner",
          "type": "address"
        }
      ],
      "name": "OwnershipTransferred",
      "type": "event"
    },
    {
      "anonymous": false,
      "inputs": [
        {
          "indexed": true,
          "internalType": "uint256",
          "name": "postId",
          "type": "uint256"
        },
        {
          "indexed": true,
          "internalType": "address",
          "name": "author",
          "type": "address"
        },
        {
          "indexed": false,
          "internalType": "string",
          "name": "content",
          "type": "string"
        },
        {
          "indexed": false,
          "internalType": "uint256",
          "name": "timestamp",
          "type": "uint256"
        }
      ],
      "name": "PostCreated",
      "type": "event"
    },
    {
      "anonymous": false,
      "inputs": [
        {
          "indexed": true,
          "internalType": "uint256",
          "name": "postId",
          "type": "uint256"
        },
        {
          "indexed": true,
          "internalType": "address",
          "name": "tipper",
          "type": "address"
        },
        {
          "indexed": false,
          "internalType": "uint256",
          "name": "amount",
          "type": "uint256"
        }
      ],
      "name": "PostTipped",
      "type": "event"
    },
    {
      "inputs": [
        {
          "internalType": "string",
          "name": "_content",
          "type": "string"
        }
      ],
      "name": "createPost",
      "outputs": [],
      "stateMutability": "nonpayable",
      "type": "function"
    },
    {
      "inputs": [
        {
          "internalType": "uint256",
          "name": "_postId",
          "type": "uint256"
        }
      ],
      "name": "getPost",
      "outputs": [
        {
          "components": [
            {
              "internalType": "string",
              "name": "content",
              "type": "string"
            },
            {
              "internalType": "address",
              "name": "author",
              "type": "address"
            },
            {
              "internalType": "uint256",
              "name": "timestamp",
              "type": "uint256"
            },
            {
              "internalType": "uint256",
              "name": "tipAmount",
              "type": "uint256"
            }
          ],
          "internalType": "struct PostStorage.Post",
          "name": "",
          "type": "tuple"
        }
      ],
      "stateMutability": "view",
      "type": "function"
    },
    {
      "inputs": [],
      "name": "getPostCount",
      "outputs": [
        {
          "internalType": "uint256",
          "name": "",
          "type": "uint256"
        }
      ],
      "stateMutability": "view",
      "type": "function"
    },
    {
      "inputs": [],
      "name": "owner",
      "outputs": [
        {
          "internalType": "address",
          "name": "",
          "type": "address"
        }
      ],
      "stateMutability": "view",
      "type": "function"
    },
    {
      "inputs": [
        {
          "internalType": "uint256",
          "name": "",
          "type": "uint256"
        }
      ],
      "name": "posts",
      "outputs": [
        {
          "internalType": "string",
          "name": "content",
          "type": "string"
        },
        {
          "internalType": "address",
          "name": "author",
          "type": "address"
        },
        {
          "internalType": "uint256",
          "name": "timestamp",
          "type": "uint256"
        },
        {
          "internalType": "uint256",
          "name": "tipAmount",
          "type": "uint256"
        }
      ],
      "stateMutability": "view",
      "type": "function"
    },
    {
      "inputs": [],
      "name": "renounceOwnership",
      "outputs": [],
      "stateMutability": "nonpayable",
      "type": "function"
    },
    {
      "inputs": [
        {
          "internalType": "uint256",
          "name": "_postId",
          "type": "uint256"
        }
      ],
      "name": "tipPost",
      "outputs": [],
      "stateMutability": "payable",
      "type": "function"
    },
    {
      "inputs": [
        {
          "internalType": "address",
          "name": "newOwner",
          "type": "address"
        }
      ],
      "name": "transferOwnership",
      "outputs": [],
      "stateMutability": "nonpayable",
      "type": "function"
    }
  ],
  "bytecode": "0x608060405234801561001057600080fd5b50338061003757604051631e4fbdf760e01b81526000600482015260240160405180910390fd5b61004081610046565b50610096565b600080546001600160a01b038381166001600160a01b0319831681178455604051919092169283917f8be0079c531659141344cd1fd0a4f28419497f9722a3daafe3b4186f6b6457e09190a35050565b610be2806100a56000396000f3fe60806040526004361061007b5760003560e01c80638da5cb5b1161004e5780638da5cb5b14610110578063bcc9540714610138578063c7303c6114610156578063f2fde38b1461017657600080fd5b80630b1e7f831461008057806340731c24146100b9578063715018a6146100e657806374d3c1f8146100fd575b600080fd5b34801561008c57600080fd5b506100a061009b36600461080d565b610196565b6040516100b0949392919061086c565b60405180910390f35b3480156100c557600080fd5b506100d96100d436600461080d565b61026a565b6040516100b091906108a4565b3480156100f257600080fd5b506100fb6103d6565b005b6100fb61010b36600461080d565b6103ea565b34801561011c57600080fd5b506000546040516001600160a01b0390911681526020016100b0565b34801561014457600080fd5b506001546040519081526020016100b0565b34801561016257600080fd5b506100fb610171366004610908565b610614565b34801561018257600080fd5b506100fb6101913660046109b9565b610752565b600181815481106101a657600080fd5b90600052602060002090600402016000915090508060000180546101c9906109e9565b80601f01602080910402602001604051908101604052809291908181526020018280546101f5906109e9565b80156102425780601f1061021757610100808354040283529160200191610242565b820191906000526020600020905b81548152906001019060200180831161022557829003601f168201915b505050506001830154600284015460039094015492936001600160a01b039091169290915084565b61029e60405180608001604052806060815260200160006001600160a01b0316815260200160008152602001600081525090565b60015482106102ea5760405162461bcd60e51b8152602060048201526013602482015272141bdcdd08191bd95cc81b9bdd08195e1a5cdd606a1b60448201526064015b60405180910390fd5b600182815481106102fd576102fd610a23565b9060005260206000209060040201604051806080016040529081600082018054610326906109e9565b80601f0160208091040260200160405190810160405280929190818152602001828054610352906109e9565b801561039f5780601f106103745761010080835404028352916020019161039f565b820191906000526020600020905b81548152906001019060200180831161038257829003601f168201915b505050918352505060018201546001600160a01b031660208201526002820154604082015260039091015460609091015292915050565b6103de610790565b6103e860006107bd565b565b60015481106104315760405162461bcd60e51b8152602060048201526013602482015272141bdcdd08191bd95cc81b9bdd08195e1a5cdd606a1b60448201526064016102e1565b6000341161048b5760405162461bcd60e51b815260206004820152602160248201527f54697020616d6f756e74206d7573742062652067726561746572207468616e206044820152600360fc1b60648201526084016102e1565b6000600182815481106104a0576104a0610a23565b60009182526020909120600160049092020101546001600160a01b031690508061050c5760405162461bcd60e51b815260206004820152601d60248201527f417574686f722063616e6e6f74206265207a65726f206164647265737300000060448201526064016102e1565b346001838154811061052057610520610a23565b906000526020600020906004020160030160008282546105409190610a4f565b90915550506040516000906001600160a01b0383169034908381818185875af1925050503d8060008114610590576040519150601f19603f3d011682016040523d82523d6000602084013e610595565b606091505b50509050806105d85760405162461bcd60e51b815260206004820152600f60248201526e151c985b9cd9995c8819985a5b1959608a1b60448201526064016102e1565b604051348152339084907f4db8afe9bce39012f1b036566400165e4630e1d714b2a6f7339a4adcdfb16c3d9060200160405180910390a3505050565b60008151116106655760405162461bcd60e51b815260206004820152601760248201527f436f6e74656e742063616e6e6f7420626520656d70747900000000000000000060448201526064016102e1565b6040805160808101825282815233602082015242918101919091526000606082018190526001805480820182559152815160049091027fb10e2d527612073b26eecdfd717e6a320cf44b4afac2b0732d9fcbe2b7fa0cf6019081906106ca9082610ab7565b506020820151600182810180546001600160a01b0319166001600160a01b0390931692909217909155604083015160028301556060909201516003909101558054339161071691610b77565b7f285db98a4632176385795ddf0d2b67cef1a21f47eb2f5d06f786ab6b5147e2008342604051610747929190610b8a565b60405180910390a350565b61075a610790565b6001600160a01b03811661078457604051631e4fbdf760e01b8152600060048201526024016102e1565b61078d816107bd565b50565b6000546001600160a01b031633146103e85760405163118cdaa760e01b81523360048201526024016102e1565b600080546001600160a01b038381166001600160a01b0319831681178455604051919092169283917f8be0079c531659141344cd1fd0a4f28419497f9722a3daafe3b4186f6b6457e09190a35050565b60006020828403121561081f57600080fd5b5035919050565b6000815180845260005b8181101561084c57602081850181015186830182015201610830565b506000602082860101526020601f19601f83011685010191505092915050565b60808152600061087f6080830187610826565b6001600160a01b03959095166020830152506040810192909252606090910152919050565b6020815260008251608060208401526108c060a0840182610826565b905060018060a01b03602085015116604084015260408401516060840152606084015160808401528091505092915050565b634e487b7160e01b600052604160045260246000fd5b60006020828403121561091a57600080fd5b813567ffffffffffffffff8082111561093257600080fd5b818401915084601f83011261094657600080fd5b813581811115610958576109586108f2565b604051601f8201601f19908116603f01168101908382118183101715610980576109806108f2565b8160405282815287602084870101111561099957600080fd5b826020860160208301376000928101602001929092525095945050505050565b6000602082840312156109cb57600080fd5b81356001600160a01b03811681146109e257600080fd5b9392505050565b600181811c908216806109fd57607f821691505b602082108103610a1d57634e487b7160e01b600052602260045260246000fd5b50919050565b634e487b7160e01b600052603260045260246000fd5b634e487b7160e01b600052601160045260246000fd5b80820180821115610a6257610a62610a39565b92915050565b601f821115610ab257600081815260208120601f850160051c81016020861015610a8f5750805b601f850160051c820191505b81811015610aae57828155600101610a9b565b5050505b505050565b815167ffffffffffffffff811115610ad157610ad16108f2565b610ae581610adf84546109e9565b84610a68565b602080601f831160018114610b1a5760008415610b025750858301515b600019600386901b1c1916600185901b178555610aae565b600085815260208120601f198616915b82811015610b4957888601518255948401946001909101908401610b2a565b5085821015610b675787850151600019600388901b60f8161c191681555b5050505050600190811b01905550565b81810381811115610a6257610a62610a39565b604081526000610b9d6040830185610826565b9050826020830152939250505056fea264697066735822122099952da1f1fe1a1f37e7b709252421fcaaf9e7c00d8161ab0cc1377315d82b2064736f6c63430008140033",
  "linkReferences": {},
  "deployedLinkReferences": {}
}